0000121062016NOVERDE           142516                       000001
1000000000186000023604909033171166760871100107072016000016889000002
1000000000186000023604909033171166760871100207082016000016889000003
1000000000186000023604909033171166760871100307092016000016889000004
1000000000186000023604909033171166760871100407102016000016889000005
1000000000186000023604909033171166760871100507112016000016889000006
1000000000186000023604909033171166760871100607122016000016889000007
1000000000186000023604909033171166760871100707012017000016889000008
1000000000186000023604909033171166760871100807022017000016889000009
1000000000186000023604909033171166760871100907032017000016889000010
1000000000186000023604909033171166760871101007042017000016889000011
1000000000186000023604909033171166760871101107052017000016889000012
1000000000186000023604909033171166760871101207062017000016889000013
1000000000202000023604910033171166760871100107072016000016861000014
1000000000202000023604910033171166760871100207082016000016861000015
1000000000202000023604910033171166760871100307092016000016861000016
1000000000202000023604910033171166760871100407102016000016861000017
1000000000202000023604910033171166760871100507112016000016861000018
1000000000202000023604910033171166760871100607122016000016861000019
1000000000202000023604910033171166760871100707012017000016861000020
1000000000202000023604910033171166760871100807022017000016861000021
1000000000202000023604910033171166760871100907032017000016861000022
1000000000202000023604910033171166760871101007042017000016861000023
1000000000202000023604910033171166760871101107052017000016861000024
1000000000202000023604910033171166760871101207062017000016861000025
1000000000007000023604911033171166760871100107072016000016861000026
1000000000007000023604911033171166760871100207082016000016861000027
1000000000007000023604911033171166760871100307092016000016861000028
1000000000007000023604911033171166760871100407102016000016861000029
1000000000007000023604911033171166760871100507112016000016861000030
1000000000007000023604911033171166760871100607122016000016861000031
1000000000007000023604911033171166760871100707012017000016861000032
1000000000007000023604911033171166760871100807022017000016861000033
1000000000007000023604911033171166760871100907032017000016861000034
1000000000007000023604911033171166760871101007042017000016861000035
1000000000007000023604911033171166760871101107052017000016861000036
1000000000007000023604911033171166760871101207062017000016861000037
1000000000011000023604912033171166760871100107072016000016776000038
1000000000011000023604912033171166760871100207082016000016776000039
1000000000011000023604912033171166760871100307092016000016776000040
1000000000011000023604912033171166760871100407102016000016776000041
1000000000011000023604912033171166760871100507112016000016776000042
1000000000011000023604912033171166760871100607122016000016776000043
1000000000011000023604912033171166760871100707012017000016776000044
1000000000011000023604912033171166760871100807022017000016776000045
1000000000011000023604912033171166760871100907032017000016776000046
1000000000011000023604912033171166760871101007042017000016776000047
1000000000011000023604912033171166760871101107052017000016776000048
1000000000011000023604912033171166760871101207062017000016776000049
900004800000808644                                           000050
